:100000000A128A1110286134FE00030E83120313B2
:10001000E4000A08E5007F08E6000A128A11532E60
:100020000A128A1113280A128A1103200A128A114D
:10003000EF008313A0308400B9300A128A11F82728
:100040000A128A11673084006F300A128A11F82769
:1000500083010A128A11752F3D088039C7003D08B7
:10006000C2004207CD00BC1B4D144D0803194528A2
:100070004D0A031D43280030BD000030BC00003095
:10008000BB000030BA00BC174D280030BD00003066
:10009000BC000030BB000030BA0041088039FF00CE
:1000A0007F08C7064108C2004207C800C01B4814A9
:1000B000480803196828480A031D66280030C10053
:1000C0000030C0000030BF000030BE00C0177028F4
:1000D0000030C1000030C0000030BF000030BE0062
:1000E0004808031D4D08031D7E280030BD00003068
:1000F000BC000030BB000030BA0008003A08F00035
:1001000040080A128A1152270A128A117108D30074
:100110007008D2005208C200C301C401C5014508DD
:10012000CC004408CB004308CA004208C900530869
:10013000C200C301C401C5014508D1004408D00074
:100140004308CF004208CE003B08F0003F080A12E7
:100150008A1152270A128A117108D3007008D2003E
:100160005208C200C301C401C5014208C9074308BF
:1001700003110318013E031DCA07440803110318A5
:10018000013E031DCB07450803110318013E031D63
:10019000CC075308C200C301C401C5014208CE0701
:1001A000430803110318013E031DCF074408031140
:1001B0000318013E031DD007450803110318013E33
:1001C000031DD1073C08F0003E080A128A1152278D
:1001D0000A128A117108D3007008D2005208C200B6
:1001E000C301C401C5014208C9074308031103182C
:1001F000013E031DCA07440803110318013E031DF5
:10020000CB07450803110318013E031DCC07530813
:10021000C200C301C401C5014208CE07430803114F
:100220000318013E031DCF07440803110318013EC4
:10023000031DD007450803110318013E031DD10714
:100240000830C2000310C90DCA0DCB0DCC0DC20B76
:1002500022293B08F0003E080A128A1152270A128E
:100260008A117108D3007008D2005208C2005308E6
:10027000C300C401C5014208C9074308031103189C
:10028000013E031DCA07440803110318013E031D64
:10029000CB07450803110318013E031DCC073A089C
:1002A000F0003F080A128A1152270A128A117108B7
:1002B000D3007008D2005208C2005308C300C40122
:1002C000C5014208C907430803110318013E031D75
:1002D000CA07440803110318013E031DCB07450854
:1002E00003110318013E031DCC070830C2000310A0
:1002F000C90DCA0DCB0DCC0DC20B77293A08F00001
:100300003E080A128A1152270A128A117108D30074
:100310007008D2005208C2005308C300C401C501CE
:100320004208C907430803110318013E031DCA0709
:10033000440803110318013E031DCB0745080311B0
:100340000318013E031DCC073B08F00040080A12C9
:100350008A1152270A128A117108D3007008D2003C
:100360005208C2005308C300C401C5014208CE07A9
:10037000430803110318013E031DCF07440803116E
:100380000318013E031DD007450803110318013E61
:10039000031DD1073C08F0003F080A128A115227BA
:1003A0000A128A117108D3007008D2005208C200E4
:1003B0005308C300C401C5014208CE074308031116
:1003C0000318013E031DCF07440803110318013E23
:1003D000031DD007450803110318013E031DD10773
:1003E0003C08F00040080A128A1152270A128A11AA
:1003F0007108D3007008D2005208C2005308C3002D
:10040000C401C50108300310C20DC30DC40DC50DD4
:10041000FF3E031D032A4208CE07430803110318B9
:10042000013E031DCF07440803110318013E031DBD
:10043000D007450803110318013E031DD1074C08DE
:10044000C200C301C401C5014208CE07430803111D
:100450000318013E031DCF07440803110318013E92
:10046000031DD007450803110318013E031DD107E2
:100470000830C2000310C90DCA0DCB0DCC0DC20B44
:100480003A2A4D084807C200C301C30D4208823E04
:10049000D20043080318013EFF3ED300D01B6B2A55
:1004A0000130C2000310CE0DCF0DD00DD10DC20B07
:1004B000522ACC1B4E140130C2000310C90DCA0DC4
:1004C000CB0DCC0DC20B5D2AFF30D2070318D30A27
:1004D000FF30D3074E2AC801CC1F842AFF304905BC
:1004E000C200FF304A05C300FF304B05C4007F3017
:1004F0004C05C500450844044304420403194E1842
:10050000822A842AC801C80A48080319B62A013079
:10051000CE07003003180130CF0700300318013038
:10052000D007003003180130D107511CB62A4E08FD
:10053000C2004F08C3005008C4005108C500013074
:10054000C600450DC50CC40CC30CC20CC60BA12AB9
:100550004508D1004408D0004308CF004208CE002F
:100560000130D2070318D30A0030D3075308803A6A
:10057000FF0080307F02031DBF2AFF305202031CA0
:10058000CC2A7F3083120313D1008030D00000309A
:10059000CF000030CE00F82A831203135308803AAC
:1005A000FF0080307F02031DD72A0130520203185A
:1005B000E52A003083120313D1000030D000003050
:1005C000CF000030CE00C701F82A8312031352086F
:1005D000CD00FF30CE05FF30CF057F30D005003095
:1005E000D1054D18D0174D08C2000310420CD100A0
:1005F0004708FF007F08D1045108BD005008BC0027
:100600004F08BB004E08BA00080027088039B10027
:100610002708A8002807B800A61B381438080319B3
:100620001F2B380A031D1C2B0030A7000030A6002A
:100630000030A5000030A400A617A701272B00302A
:10064000A7000030A6000030A5000030A400230859
:100650008039FF007F08B1062308A8002807B900E9
:10066000A21B391439080319432B390A031D402BE7
:100670000030A3000030A2000030A1000030A00034
:10068000A217A3014B2B0030A3000030A2000030C2
:10069000A1000030A0002308220421042004031D2F
:1006A0006A2B0030A7000030A6000030A500003003
:1006B000A4008030A6047F30A7043108FF007F0823
:1006C000A7042708A3002608A2002508A1002408E3
:1006D000A00008003808031D762B0030A30000306E
:1006E000A2000030A1000030A00008003808A800D7
:1006F000A9012908AB0039082802AA00031CAB0392
:100700002A087F3EB2002B080318013E003EB300CA
:100710002708B0002608AF002508AE002408AD0069
:100720000030A7000030A6000030A5000030A40073
:100730000030B7000030B6000030B5000030B40023
:10074000B9011A3039020318E92B39080319C52BEE
:100750000130A8000310AD0DAE0DAF0DB00DA80B0C
:10076000AA2B0130A8000310A40DA50DA60DA70DFE
:10077000A80BB32BB71B24140130A8000310B40D31
:10078000B50DB60DB70DA80BBE2B23083002031D07
:10079000D32B22082F02031DD32B21082E02031D69
:1007A000D32B20082D02031CE42B37172008AD02A1
:1007B0002108031C210FAE022208031C220FAF02E6
:1007C0002308031C230FB0020130FF007F08B90784
:1007D000A12B30082F042E042D04031D3414A61B56
:1007E0000C2C0130A8000310A40DA50DA60DA70D1B
:1007F000A80BF32BB71B24140130A8000310B40D71
:10080000B50DB60DB70DA80BFE2BFF30B2070318C0
:10081000B30AFF30B307EF2BB901B71F252CFF3008
:100820003405A800FF303505A900FF303605AA00C1
:100830007F303705AB002B082A042904280403194C
:100840002418232C252CB901B90A39080319572C6F
:100850000130A407003003180130A5070030031849
:100860000130A607003003180130A707271C572CBA
:100870002408A8002508A9002608AA002708AB001C
:100880000130AC002B0DAB0CAA0CA90CA80CAC0BC6
:10089000422C2B08A7002A08A6002908A500280832
:1008A000A4000130B2070318B30A0030B3073308BD
:1008B000803AFF0080307F02031D602CFF3032023F
:1008C000031C702CFF3083120313B2000030B300FE
:1008D0000030A7000030A6000030A5000030A400C2
:1008E000831203133308803AFF0080307F02031D18
:1008F0007B2C0130320203188A2C83120313B201BD
:10090000B3010030A7000030A6000030A500003081
:10091000A400B101831203133208B800381C922CD2
:10092000A617962C7F30FF007F08A6053808A80080
:100930000310280CA7005D2BF8007808031DF31F97
:10094000B12C7009FA007109FB007209FC007309EF
:10095000FD00FA0A0319FB0A0319FC0A0319FD0A30
:10096000B92C7308FD007208FC007108FB007008C8
:10097000FA007308720471047004031DC82C00305F
:10098000F3000030F2000030F1000030F000080009
:100990009630F900FE307D050319F72C0130FF0079
:1009A0007F08F90701300310FD0CFC0CFB0CFA0C5E
:1009B000FF3E031DD32CCA2C0130FF007F08F9072E
:1009C0000130FA07003003180130FB07003003182C
:1009D0000130FC07003003180130FD07013003101F
:1009E000FD0CFC0CFB0CFA0CFF3E031DEF2CFF3042
:1009F0007D0503190B2DDC2C02307902031C0D2D13
:100A00000130F9020130F4000310FA0DFB0DFC0D6A
:100A1000FD0DF40B042DFC1FFC2C7918172DFF3055
:100A2000FA05FF30FB057F30FC05FF30FD050310A4
:100A3000F90C7908F400F501F601F70118300310FC
:100A4000F40DF50DF60DF70DFF3E031D1F2D740877
:100A5000FA047508FB047608FC047708FD0478089E
:100A6000031DF31F342DFD177D08F3007C08F200F1
:100A70007B08F1007A08F000080000307005F800EB
:100A800000307105F90080307205FA007F3073057F
:100A9000FB007B087A0479047804031D572D00308D
:100AA000F3000030F2000030F1000030F0000030C0
:100AB0007405F80000307505F90080307605FA00FD
:100AC0007F307705FB007B087A0479047804031DE6
:100AD000712D0030F7000030F6000030F5000030D6
:100AE000F400F31F972D0030F8000030F9000030BB
:100AF000FA008030FB007008F8027108031C710FC7
:100B0000822D832DF9027208031C720F882D892D06
:100B1000FA027308031C730F8E2D8F2DFB027B08C6
:100B2000F3007A08F2007908F1007808F000F71F66
:100B3000BD2D0030F8000030F9000030FA008030A0
:100B4000FB007408F8027508031C750FA82DA92D69
:100B5000F9027608031C760FAE2DAF2DFA02770846
:100B6000031C770FB42DB52DFB027B08F7007A0824
:100B7000F6007908F5007808F4008030F30680303C
:100B8000F70677087302031D080076087202031D3A
:100B9000080075087102031D08007408700208003F
:100BA0004030A3000030A2000030A1000030A000BF
:100BB0006B086902F0006C08031C6C0A6A02F10001
:100BC000F201F30100300A128A119C240A128A11E0
:100BD0007308A7007208A6007108A5007008A40099
:100BE0000A128A1105230A128A112308E300220837
:100BF000E2002108E1002008E0004030BD00803024
:100C0000BC000030BB000030BA004B30A300743091
:100C1000A2002430A1000030A0006308A7006208F1
:100C2000A6006108A5006008A4000A128A11052325
:100C30000A128A112308C1002208C0002108BF003F
:100C40002008BE000A128A112C200A128A113D08BF
:100C5000DB003C08DA003B08D9003A08D8004730EE
:100C6000BD000430BC00D030BB000030BA005B08CF
:100C7000C1005A08C0005908BF005808BE000A1237
:100C80008A112C203D08DF003C08DE003B08DD0017
:100C90003A08DC005F08D7005E08D6005D08D50082
:100CA0005C08D40008000B1D662E06308100013060
:100CB000FF007F08ED0715306D06031D652EED0161
:100CC0000A128A11D8270A128A110B110C1DB32E91
:100CD0000A128A1121270A128A11003A0319B22E28
:100CE0000A128A11EE270A128A117308B2007208DA
:100CF000B1007108B0007008AF004230F300C83096
:100D0000F2000030F1000030F0003208F700310846
:100D1000F6003008F5002F08F4000A128A113D256C
:100D20000A128A110318962E6130B02E3208F30091
:100D30003108F2003008F1002F08F0004230F700CF
:100D40004830F6000030F5000030F4000A128A1135
:100D50003D250A128A110318AF2E6330B02E62307F
:100D60008312EF000C118C1DCA2E941BB92E141F78
:100D7000BD2E13089413141314168316141DC82EB5
:100D8000831213086F089300141683161418C52EC7
:100D900083128C116608FF0065088A00640E8300C8
:100DA000FE0E7E0E0900F92E811501118110011031
:100DB00008000111811001100800011181100114B7
:100DC000080001118114011008000111811401149F
:100DD000080001158110011008000115811001148F
:100DE0000800011581140110080001158114011477
:100DF00008003A08003A0319012F013A03191B2F82
:100E0000202F3908013A0319D42E033A0319D92E99
:100E1000063A0319DD2E0C3A0319E12E183A03198C
:100E2000E52E303A0319E92E603A0319ED2EC03A47
:100E30000319F12E202F3908003A0319F52E202F1F
:100E400008006E08031D302F1608EC001508EB0093
:100E50000A128A15EE278312EE01EE0A003008000E
:100E60006E03031D502F1608EA001508E9000A1248
:100E70008A11D0250A128A1157088316B6008312E8
:100E800056088316B500831255088316B4008312E2
:100E900054088316B3000A128A11E3278312EE0165
:100EA00001300800F800F401F5017008F200F301C8
:100EB0007208F6007308F700781C642F7608F407B0
:100EC0000318F50A7708F50701300310F60DF70D42
:100ED000FF3E031D652F0310F80C7808031D5C2FDF
:100EE0007508F1007408F000080010300A128A1129
:100EF00093270A128A11063083128100103083165C
:100F0000BB000030BC000A128A11AC270A128A11F9
:100F10000A128A15F7270A128A110A128A11CC2797
:100F20000A128A11922F8316B900871507163908FD
:100F3000930083129411141594141410141694161B
:100F40000130831691008030940083128C11831637
:100F50008C150B178B1708008312810183168112E1
:100F600081113C08BA003B08B9000A128A11D32645
:100F70000B118B168B1708000A128A15E7270A1225
:100F80008A118316071583129711171597101714D6
:100F90000A128A15E1270800071787178312981786
:100FA0008316181218139816181510309900080097
:100FB00008140D30F000F00BDB2F83120313081020
:100FC0008E018F0108000C110A128A15DB270530EB
:100FD000FF007F08970483160C1508008316360857
:100FE000F3003508F2003408F1003308F00008007F
:100FF00064008001840A0406031900340406F92FF2
:101FAE000810831208100800F030FF007F0883121B
:101FBE00970508000C1183160C150B178B170800CC
:101FCE008E018F01901090121012101408008316BB
:101FDE000C110A128A15DB27171583160C1508002B
:101FEE000A128A15D7270A128A150A128A11BC27D5
:021FFE000800D9
:08400000FF3FFF3FFF3FFF3FC0
:02400E00FA3F77
:00000001FF
