:060000000A128A1110280B
:10000800FE00030E83120313E4000A08E5007F08CC
:10001800E6000A128A11562E0A128A11132883162C
:100028000A128A11FF27B100A001A101A201A301B0
:10003800A401A501A601A701A801A9018312E7014E
:10004800E801E901EA01EB01EC01ED01EE018301B0
:100058000A128A110D2F3D088039C7003D08C200D9
:100068004207CD00BC1B4D144D08031948284D0A02
:10007800031D46280030BD000030BC000030BB0026
:100088000030BA00BC1750280030BD000030BC005A
:100098000030BB000030BA0041088039FF007F08FB
:1000A800C7064108C2004207C800C01B48144808D8
:1000B80003196B28480A031D69280030C100003065
:1000C800C0000030BF000030BE00C01773280030E9
:1000D800C1000030C0000030BF000030BE0048083A
:1000E800031D4D08031D81280030BD000030BC00F1
:1000F8000030BB000030BA0008003A08F0004008A1
:100108000A128A1196270A128A117108D3007008F8
:10011800D2005208C200C301C401C5014508CC0081
:100128004408CB004308CA004208C9005308C2006B
:10013800C301C401C5014508D1004408D0004308E3
:10014800CF004208CE003B08F0003F080A128A118F
:1001580096270A128A117108D3007008D200520833
:10016800C200C301C401C5014208C90743080311FD
:100178000318013E031DCA07440803110318013E72
:10018800031DCB07450803110318013E031DCC07C7
:100198005308C200C301C401C5014208CE07430881
:1001A80003110318013E031DCF0744080311031868
:1001B800013E031DD007450803110318013E031D26
:1001C800D1073C08F0003E080A128A1196270A1245
:1001D8008A117108D3007008D2005208C200C30106
:1001E800C401C5014208C907430803110318013EA9
:1001F800031DCA07440803110318013E031DCB075A
:10020800450803110318013E031DCC075308C2001B
:10021800C301C401C5014208CE07430803110318EE
:10022800013E031DCF07440803110318013E031DB7
:10023800D007450803110318013E031DD1070830F4
:10024800C2000310C90DCA0DCB0DCC0DC20B252958
:100258003B08F0003E080A128A1196270A128A11F2
:100268007108D3007008D2005208C2005308C300B6
:10027800C401C5014208C907430803110318013E18
:10028800031DCA07440803110318013E031DCB07C9
:10029800450803110318013E031DCC073A08F00076
:1002A8003F080A128A1196270A128A117108D30088
:1002B8007008D2005208C2005308C300C401C50127
:1002C8004208C907430803110318013E031DCA0762
:1002D800440803110318013E031DCB074508031109
:1002E8000318013E031DCC070830C2000310C90DD6
:1002F800CA0DCB0DCC0DC20B7A293A08F0003E0886
:100308000A128A1196270A128A117108D3007008F6
:10031800D2005208C2005308C300C401C5014208F4
:10032800C907430803110318013E031DCA074408FF
:1003380003110318013E031DCB07450803110318D9
:10034800013E031DCC073B08F00040080A128A1141
:1003580096270A128A117108D3007008D200520831
:10036800C2005308C300C401C5014208CE074308B0
:1003780003110318013E031DCF0744080311031896
:10038800013E031DD007450803110318013E031D54
:10039800D1073C08F0003F080A128A1196270A1272
:1003A8008A117108D3007008D2005208C20053089D
:1003B800C300C401C5014208CE074308031103184E
:1003C800013E031DCF07440803110318013E031D16
:1003D800D007450803110318013E031DD1073C0847
:1003E800F00040080A128A1196270A128A11710829
:1003F800D3007008D2005208C2005308C300C401D9
:10040800C50108300310C20DC30DC40DC50DFF3E54
:10041800031D062A4208CE07430803110318013EAC
:10042800031DCF07440803110318013E031DD0071D
:10043800450803110318013E031DD1074C08C200EB
:10044800C301C401C5014208CE07430803110318BC
:10045800013E031DCF07440803110318013E031D85
:10046800D007450803110318013E031DD1070830C2
:10047800C2000310C90DCA0DCB0DCC0DC20B3D2A0D
:100488004D084807C200C301C30D4208823ED2008E
:1004980043080318013EFF3ED300D01B6E2A0130EB
:1004A800C2000310CE0DCF0DD00DD10DC20B552AB1
:1004B800CC1B4E140130C2000310C90DCA0DCB0D60
:1004C800CC0DC20B602AFF30D2070318D30AFF30C5
:1004D800D307512AC801CC1F872AFF304905C2001B
:1004E800FF304A05C300FF304B05C4007F304C0580
:1004F800C500450844044304420403194E18852ADC
:10050800872AC801C80A48080319B92A0130CE0742
:10051800003003180130CF07003003180130D0072E
:10052800003003180130D107511CB92A4E08C20007
:100538004F08C3005008C4005108C5000130C60068
:10054800450DC50CC40CC30CC20CC60BA42A450827
:10055800D1004408D0004308CF004208CE00013043
:10056800D2070318D30A0030D3075308803AFF0094
:1005780080307F02031DC22AFF305202031CCF2A9B
:100588007F3083120313D1008030D0000030CF00B9
:100598000030CE00FB2A831203135308803AFF0071
:1005A80080307F02031DDA2A013052020318E82A3C
:1005B800003083120313D1000030D0000030CF0088
:1005C8000030CE00C701FB2A831203135208CD0066
:1005D800FF30CE05FF30CF057F30D0050030D10584
:1005E8004D18D0174D08C2000310420CD10047081F
:1005F800FF007F08D1045108BD005008BC004F0817
:10060800BB004E08BA00080027088039B100270847
:10061800A8002807B800A61B381438080319222B8D
:10062800380A031D1F2B0030A7000030A600003039
:10063800A5000030A400A617A7012A2B0030A700A8
:100648000030A6000030A5000030A400230880393F
:10065800FF007F08B1062308A8002807B900A21BDD
:10066800391439080319462B390A031D432B003066
:10067800A3000030A2000030A1000030A000A217A3
:10068800A3014E2B0030A3000030A2000030A100CF
:100698000030A0002308220421042004031D6D2B30
:1006A8000030A7000030A6000030A5000030A400EC
:1006B8008030A6047F30A7043108FF007F08A70414
:1006C8002708A3002608A2002508A1002408A000E6
:1006D80008003808031D792B0030A3000030A20061
:1006E8000030A1000030A00008003808A800A901C7
:1006F8002908AB0039082802AA00031CAB032A0802
:100708007F3EB2002B080318013E003EB3002708C5
:10071800B0002608AF002508AE002408AD00003060
:10072800A7000030A6000030A5000030A40000306B
:10073800B7000030B6000030B5000030B400B90191
:100748001A3039020318EC2B39080319C82B013069
:10075800A8000310AD0DAE0DAF0DB00DA80BAD2B5D
:100768000130A8000310A40DA50DA60DA70DA80B18
:10077800B62BB71B24140130A8000310B40DB50D17
:10078800B60DB70DA80BC12B23083002031DD62BBD
:1007980022082F02031DD62B21082E02031DD62B5B
:1007A80020082D02031CE72B37172008AD0221086B
:1007B800031C210FAE022208031C220FAF022308DC
:1007C800031C230FB0020130FF007F08B907A42BD8
:1007D80030082F042E042D04031D3414A61B0F2CDF
:1007E8000130A8000310A40DA50DA60DA70DA80B98
:1007F800F62BB71B24140130A8000310B40DB50D57
:10080800B60DB70DA80B012CFF30B2070318B30AB9
:10081800FF30B307F22BB901B71F282CFF3034057E
:10082800A800FF303505A900FF303605AA007F3043
:100838003705AB002B082A042904280403192418B7
:10084800262C282CB901B90A390803195A2C013069
:10085800A407003003180130A50700300318013041
:10086800A607003003180130A707271C5A2C2408B4
:10087800A8002508A9002608AA002708AB0001300F
:10088800AC002B0DAB0CAA0CA90CA80CAC0B452C7E
:100898002B08A7002A08A6002908A5002808A400F4
:1008A8000130B2070318B30A0030B3073308803A9F
:1008B800FF0080307F02031D632CFF303202031CCF
:1008C800732CFF3083120313B2000030B3000030E2
:1008D800A7000030A6000030A5000030A400831255
:1008E80003133308803AFF0080307F02031D7E2CFB
:1008F8000130320203188D2C83120313B201B301A5
:100908000030A7000030A6000030A5000030A40089
:10091800B101831203133208B800381C952CA617AE
:10092800992C7F30FF007F08A6053808A80003101F
:10093800280CA700602BF8007808031DF31FB42CBF
:100948007009FA007109FB007209FC007309FD00C7
:10095800FA0A0319FB0A0319FC0A0319FD0ABC2C3D
:100968007308FD007208FC007108FB007008FA00AB
:100978007308720471047004031DCB2C0030F3005B
:100988000030F2000030F1000030F000080096302E
:10099800F900FE307D050319FA2C0130FF007F08AD
:1009A800F90701300310FD0CFC0CFB0CFA0CFF3EA0
:1009B800031DD62CCD2C0130FF007F08F90701302C
:1009C800FA07003003180130FB0700300318013024
:1009D800FC07003003180130FD0701300310FD0C3F
:1009E800FC0CFB0CFA0CFF3E031DF22CFF307D05BE
:1009F80003190E2DDF2C02307902031C102D013053
:100A0800F9020130F4000310FA0DFB0DFC0DFD0D89
:100A1800F40B072DFC1FFF2C79181A2DFF30FA054F
:100A2800FF30FB057F30FC05FF30FD050310F90C96
:100A38007908F400F501F601F70118300310F40DF8
:100A4800F50DF60DF70DFF3E031D222D7408FA046F
:100A58007508FB047608FC047708FD047808031D74
:100A6800F31F372DFD177D08F3007C08F2007B0883
:100A7800F1007A08F000080000307005F800003036
:100A88007105F90080307205FA007F307305FB00AC
:100A98007B087A0479047804031D5A2D0030F3008A
:100AA8000030F2000030F1000030F0000030740532
:100AB800F80000307505F90080307605FA007F30BF
:100AC8007705FB007B087A0479047804031D742DEC
:100AD8000030F7000030F6000030F5000030F40078
:100AE800F31F9A2D0030F8000030F9000030FA00AA
:100AF8008030FB007008F8027108031C710F852D07
:100B0800862DF9027208031C720F8B2D8C2DFA02A8
:100B18007308031C730F912D922DFB027B08F300C1
:100B28007A08F2007908F1007808F000F71FC02D64
:100B38000030F8000030F9000030FA008030FB0087
:100B48007408F8027508031C750FAB2DAC2DF9025B
:100B58007608031C760FB12DB22DFA027708031C14
:100B6800770FB72DB82DFB027B08F7007A08F6003F
:100B78007908F5007808F4008030F3068030F7062D
:100B880077087302031D080076087202031D080027
:100B980075087102031D08007408700208004030CF
:100BA800A3000030A2000030A1000030A0006B08B4
:100BB8006902F0006C08031C6C0A6A02F100F20179
:100BC800F30100300A128A119F240A128A1173084D
:100BD800A7007208A6007108A5007008A4000A12F0
:100BE8008A1108230A128A112308E3002208E20066
:100BF8002108E1002008E0004030BD008030BC0042
:100C08000030BB000030BA004B30A3007430A200A3
:100C18002430A1000030A0006308A7006208A600E5
:100C28006108A5006008A4000A128A1108230A12A4
:100C38008A112308C1002208C0002108BF0020082B
:100C4800BE000A128A112F200A128A113D08DB0001
:100C58003C08DA003B08D9003A08D8004730BD0004
:100C68000430BC00D030BB000030BA005B08C100C3
:100C78005A08C0005908BF005808BE000A128A1155
:100C88002F203D08DF003C08DE003B08DD003A0865
:100C9800DC005F08D7005E08D6005D08D5005C0858
:100CA800D40008000B1D692E063081000130FF00BA
:100CB8007F08ED0732306D06031D682EED010A121C
:100CC8008A15F5270A128A110B110C1DB62E0A1265
:100CD8008A1142270A128A11003A0319B42E0A12FD
:100CE8008A15E0270A128A117308A3007208A20065
:100CF8007108A1007008A0004230F3008C30F200A7
:100D08000030F1000030F0002308F7002208F60058
:100D18002108F5002008F4000A128A1140250A1259
:100D28008A110318992E6130B32E2308F300220884
:100D3800F2002108F1002008F0004130F700F030FF
:100D4800F6000030F5000030F4000A128A11402540
:100D58000A128A110318B22E6330B32E6230B10022
:100D680083120C116608FF0065088A00640E830070
:100D7800FE0E7E0E0900E52E81150111811001106D
:100D880008000111811001100800011181100114DF
:100D980008000111811401100800011181140114C7
:100DA80008000115811001100800011581100114B7
:100DB800080001158114011008000115811401149F
:100DC80008002B08003A0319ED2E013A0319072FE2
:100DD8000C2F2A08013A0319C02E033A0319C52E0D
:100DE800063A0319C92E0C3A0319CD2E183A0319DD
:100DF800D12E303A0319D52E603A0319D92EC03AAC
:100E08000319DD2E0C2F2A08003A0319E12E0C2FA6
:100E180008000A128A11EB270A128A110630831277
:100E2800810010308316AC000030AD000A128A1120
:100E3800CB270A128A110A128A15D7270A128A1191
:100E480001300A128A1173270A128A1183160313B2
:100E580031080A128A15C7270A128A110330831625
:100E68000313B0000830AF007630AE00AE0B3A2F57
:100E7800AF0B3A2FB00B3A2F00002A2F6E08031D34
:100E8800512F1608EC001508EB000A128A15CE2718
:100E98008312EE01EE0A003008006E03031D712F65
:100EA8001608EA001508E9000A128A11D3250A1261
:100EB8008A1157088316A700831256088316A600BE
:100EC800831255088316A500831254088316A400BC
:100ED8000A128A15EA278312EE0101300800AD00D4
:100EE800AB01AC012B082D0784000A128A11B9271F
:100EF8000A128A11003A031908002B082D078400EA
:100F08000A128A11B9270A128A110A128A15C727E2
:100F18000A128A1101308316AB070318AC0A003095
:100F2800AC07762FF800F401F5017008F200F30120
:100F38007208F6007308F700781CA82F7608F407E3
:100F48000318F50A7708F50701300310F60DF70DB9
:100F5800FF3E031DA92F0310F80C7808031DA02FCE
:100F68007508F1007408F000080007308A000408CA
:100F7800840A82070034483465346C346C346F3426
:100F880020344734693461340D340A340034831210
:100F980081018316811281112D08AB002C08AA004B
:100FA8000A128A11BF260B118B168B1708000A121A
:100FB8008A11F8270A128A118316071583129711C6
:100FC8001715971017140A128A15C12708008316D7
:100FD800071787178312981783161812181398166D
:100FE80018151030990008008E018F01901090128A
:080FF80010121014080061340E
:101F6E000810831208100800F030FF007F0883125B
:101F7E00970508000C1183160C150B178B1708000C
:101F8E00AA00981CC82F2A088312990008008316ED
:101F9E000C110A128A15BB27171583160C1508008B
:101FAE000A128A15B7270A128A150A128A11DB2716
:101FBE00080083162708F3002608F2002508F10012
:101FCE002408F00008000C110A128A15BB270530F0
:101FDE00FF007F08970483160C15080008140D30B7
:101FEE00F000F00BF82F8312031308108E018F01EF
:021FFE000800D9
:08400000FF3FFF3FFF3FFF3FC0
:02400E00FA3F77
:00000001FF
