:100000000A128A1110286134FE00030E83120313B2
:10001000E4000A08E5007F08E6000A128A11CF2DE5
:100020000A128A1113280A128A110320ED0083167E
:10003000A001A101A201A301A401A501A601A7019C
:100040008312E701E801E901EA01EB01EC01830118
:100050000A128A11782F3D088039C7003D08C20076
:100060004207CD00BC1B4D144D08031944284D0A0E
:10007000031D42280030BD000030BC000030BB0032
:100080000030BA00BC174C280030BD000030BC0066
:100090000030BB000030BA0041088039FF007F0803
:1000A000C7064108C2004207C800C01B48144808E0
:1000B00003196728480A031D65280030C100003075
:1000C000C0000030BF000030BE00C0176F280030F5
:1000D000C1000030C0000030BF000030BE00480842
:1000E000031D4D08031D7D280030BD000030BC00FD
:1000F0000030BB000030BA0008003A08F0004008A9
:100100000A128A1155270A128A117108D300700841
:10011000D2005208C200C301C401C5014508CC0089
:100120004408CB004308CA004208C9005308C20073
:10013000C301C401C5014508D1004408D0004308EB
:10014000CF004208CE003B08F0003F080A128A1197
:1001500055270A128A117108D3007008D20052087C
:10016000C200C301C401C5014208C9074308031105
:100170000318013E031DCA07440803110318013E7A
:10018000031DCB07450803110318013E031DCC07CF
:100190005308C200C301C401C5014208CE07430889
:1001A00003110318013E031DCF0744080311031870
:1001B000013E031DD007450803110318013E031D2E
:1001C000D1073C08F0003E080A128A1155270A128E
:1001D0008A117108D3007008D2005208C200C3010E
:1001E000C401C5014208C907430803110318013EB1
:1001F000031DCA07440803110318013E031DCB0762
:10020000450803110318013E031DCC075308C20023
:10021000C301C401C5014208CE07430803110318F6
:10022000013E031DCF07440803110318013E031DBF
:10023000D007450803110318013E031DD1070830FC
:10024000C2000310C90DCA0DCB0DCC0DC20B212964
:100250003B08F0003E080A128A1155270A128A113B
:100260007108D3007008D2005208C2005308C300BE
:10027000C401C5014208C907430803110318013E20
:10028000031DCA07440803110318013E031DCB07D1
:10029000450803110318013E031DCC073A08F0007E
:1002A0003F080A128A1155270A128A117108D300D1
:1002B0007008D2005208C2005308C300C401C5012F
:1002C0004208C907430803110318013E031DCA076A
:1002D000440803110318013E031DCB074508031111
:1002E0000318013E031DCC070830C2000310C90DDE
:1002F000CA0DCB0DCC0DC20B76293A08F0003E0892
:100300000A128A1155270A128A117108D30070083F
:10031000D2005208C2005308C300C401C5014208FC
:10032000C907430803110318013E031DCA07440807
:1003300003110318013E031DCB07450803110318E1
:10034000013E031DCC073B08F00040080A128A1149
:1003500055270A128A117108D3007008D20052087A
:10036000C2005308C300C401C5014208CE074308B8
:1003700003110318013E031DCF074408031103189E
:10038000013E031DD007450803110318013E031D5C
:10039000D1073C08F0003F080A128A1155270A12BB
:1003A0008A117108D3007008D2005208C2005308A5
:1003B000C300C401C5014208CE0743080311031856
:1003C000013E031DCF07440803110318013E031D1E
:1003D000D007450803110318013E031DD1073C084F
:1003E000F00040080A128A1155270A128A11710872
:1003F000D3007008D2005208C2005308C300C401E1
:10040000C50108300310C20DC30DC40DC50DFF3E5C
:10041000031D022A4208CE07430803110318013EB8
:10042000031DCF07440803110318013E031DD00725
:10043000450803110318013E031DD1074C08C200F3
:10044000C301C401C5014208CE07430803110318C4
:10045000013E031DCF07440803110318013E031D8D
:10046000D007450803110318013E031DD1070830CA
:10047000C2000310C90DCA0DCB0DCC0DC20B392A19
:100480004D084807C200C301C30D4208823ED20096
:1004900043080318013EFF3ED300D01B6A2A0130F7
:1004A000C2000310CE0DCF0DD00DD10DC20B512ABD
:1004B000CC1B4E140130C2000310C90DCA0DCB0D68
:1004C000CC0DC20B5C2AFF30D2070318D30AFF30D1
:1004D000D3074D2AC801CC1F832AFF304905C2002B
:1004E000FF304A05C300FF304B05C4007F304C0588
:1004F000C500450844044304420403194E18812AE8
:10050000832AC801C80A48080319B52A0130CE0752
:10051000003003180130CF07003003180130D00736
:10052000003003180130D107511CB52A4E08C20013
:100530004F08C3005008C4005108C5000130C60070
:10054000450DC50CC40CC30CC20CC60BA02A450833
:10055000D1004408D0004308CF004208CE0001304B
:10056000D2070318D30A0030D3075308803AFF009C
:1005700080307F02031DBE2AFF305202031CCB2AAB
:100580007F3083120313D1008030D0000030CF00C1
:100590000030CE00F72A831203135308803AFF007D
:1005A00080307F02031DD62A013052020318E42A4C
:1005B000003083120313D1000030D0000030CF0090
:1005C0000030CE00C701F72A831203135208CD0072
:1005D000FF30CE05FF30CF057F30D0050030D1058C
:1005E0004D18D0174D08C2000310420CD100470827
:1005F000FF007F08D1045108BD005008BC004F081F
:10060000BB004E08BA00080027088039B10027084F
:10061000A8002807B800A61B3814380803191E2B99
:10062000380A031D1B2B0030A7000030A600003045
:10063000A5000030A400A617A701262B0030A700B4
:100640000030A6000030A5000030A4002308803947
:10065000FF007F08B1062308A8002807B900A21BE5
:10066000391439080319422B390A031D3F2B003076
:10067000A3000030A2000030A1000030A000A217AB
:10068000A3014A2B0030A3000030A2000030A100DB
:100690000030A0002308220421042004031D692B3C
:1006A0000030A7000030A6000030A5000030A400F4
:1006B0008030A6047F30A7043108FF007F08A7041C
:1006C0002708A3002608A2002508A1002408A000EE
:1006D00008003808031D752B0030A3000030A2006D
:1006E0000030A1000030A00008003808A800A901CF
:1006F0002908AB0039082802AA00031CAB032A080A
:100700007F3EB2002B080318013E003EB3002708CD
:10071000B0002608AF002508AE002408AD00003068
:10072000A7000030A6000030A5000030A400003073
:10073000B7000030B6000030B5000030B400B90199
:100740001A3039020318E82B39080319C42B013079
:10075000A8000310AD0DAE0DAF0DB00DA80BA92B69
:100760000130A8000310A40DA50DA60DA70DA80B20
:10077000B22BB71B24140130A8000310B40DB50D23
:10078000B60DB70DA80BBD2B23083002031DD22BCD
:1007900022082F02031DD22B21082E02031DD22B6B
:1007A00020082D02031CE32B37172008AD02210877
:1007B000031C210FAE022208031C220FAF022308E4
:1007C000031C230FB0020130FF007F08B907A02BE4
:1007D00030082F042E042D04031D3414A61B0B2CEB
:1007E0000130A8000310A40DA50DA60DA70DA80BA0
:1007F000F22BB71B24140130A8000310B40DB50D63
:10080000B60DB70DA80BFD2BFF30B2070318B30AC6
:10081000FF30B307EE2BB901B71F242CFF3034058E
:10082000A800FF303505A900FF303605AA007F304B
:100830003705AB002B082A042904280403192418BF
:10084000222C242CB901B90A39080319562C01307D
:10085000A407003003180130A50700300318013049
:10086000A607003003180130A707271C562C2408C0
:10087000A8002508A9002608AA002708AB00013017
:10088000AC002B0DAB0CAA0CA90CA80CAC0B412C8A
:100890002B08A7002A08A6002908A5002808A400FC
:1008A0000130B2070318B30A0030B3073308803AA7
:1008B000FF0080307F02031D5F2CFF303202031CDB
:1008C0006F2CFF3083120313B2000030B3000030EE
:1008D000A7000030A6000030A5000030A40083125D
:1008E00003133308803AFF0080307F02031D7A2C07
:1008F000013032020318892C83120313B201B301B1
:100900000030A7000030A6000030A5000030A40091
:10091000B101831203133208B800381C912CA617BA
:10092000952C7F30FF007F08A6053808A80003102B
:10093000280CA7005C2BF8007808031DF31FB02CCF
:100940007009FA007109FB007209FC007309FD00CF
:10095000FA0A0319FB0A0319FC0A0319FD0AB82C49
:100960007308FD007208FC007108FB007008FA00B3
:100970007308720471047004031DC72C0030F30067
:100980000030F2000030F1000030F0000800963036
:10099000F900FE307D050319F62C0130FF007F08B9
:1009A000F90701300310FD0CFC0CFB0CFA0CFF3EA8
:1009B000031DD22CC92C0130FF007F08F90701303C
:1009C000FA07003003180130FB070030031801302C
:1009D000FC07003003180130FD0701300310FD0C47
:1009E000FC0CFB0CFA0CFF3E031DEE2CFF307D05CA
:1009F00003190A2DDB2C02307902031C0C2D013067
:100A0000F9020130F4000310FA0DFB0DFC0DFD0D91
:100A1000F40B032DFC1FFB2C7918162DFF30FA0563
:100A2000FF30FB057F30FC05FF30FD050310F90C9E
:100A30007908F400F501F601F70118300310F40D00
:100A4000F50DF60DF70DFF3E031D1E2D7408FA047B
:100A50007508FB047608FC047708FD047808031D7C
:100A6000F31F332DFD177D08F3007C08F2007B088F
:100A7000F1007A08F000080000307005F80000303E
:100A80007105F90080307205FA007F307305FB00B4
:100A90007B087A0479047804031D562D0030F30096
:100AA0000030F2000030F1000030F000003074053A
:100AB000F80000307505F90080307605FA007F30C7
:100AC0007705FB007B087A0479047804031D702DF8
:100AD0000030F7000030F6000030F5000030F40080
:100AE000F31F962D0030F8000030F9000030FA00B6
:100AF0008030FB007008F8027108031C710F812D13
:100B0000822DF9027208031C720F872D882DFA02BC
:100B10007308031C730F8D2D8E2DFB027B08F300D1
:100B20007A08F2007908F1007808F000F71FBC2D70
:100B30000030F8000030F9000030FA008030FB008F
:100B40007408F8027508031C750FA72DA82DF9026B
:100B50007608031C760FAD2DAE2DFA027708031C24
:100B6000770FB32DB42DFB027B08F7007A08F6004F
:100B70007908F5007808F4008030F3068030F70635
:100B800077087302031D080076087202031D08002F
:100B900075087102031D08007408700208000B1D1F
:100BA000E22D063081000130FF007F08EB07323074
:100BB0006B06031DE12DEB010A128A11CE270A12E2
:100BC0008A110B110C1D332E0A128A1124270A12C6
:100BD0008A11003A0319322E0A128A11E4270A12E6
:100BE0008A117308A3007208A2007108A10070089E
:100BF000A0004230F3004830F2000030F100003035
:100C0000F0002308F7002208F6002108F50020086C
:100C1000F4000A128A113C250A128A110318122EB6
:100C200061302F2E2308F3002208F2002108F10082
:100C30002008F0004130F700C830F6000030F50021
:100C40000030F4000A128A113C250A128A11031896
:100C50002E2E63308312ED008814322E6230831200
:100C6000ED0088100C118C1D4A2E941B392E141F78
:100C70003D2E13089413141314168316141D482EB6
:100C8000831213086D089300141683161418452E4A
:100C900083128C116608FF0065088A00640E8300C9
:100CA000FE0E7E0E09004030A3000030A20000308E
:100CB000A1000030A00069086702F0006A08031C68
:100CC0006A0A6802F100F201F30100300A128A1187
:100CD0009B240A128A117308A7007208A6007108E3
:100CE000A5007008A4000A128A1104230A128A11AE
:100CF0002308E3002208E2002108E1002008E000C8
:100D00004030BD008030BC000030BB000030BA0075
:100D10004B30A3007430A2002430A1000030A000AA
:100D20006308A7006208A6006108A5006008A40087
:100D30000A128A1104230A128A112308C100220808
:100D4000C0002108BF002008BE000A128A112B2013
:100D50000A128A113D08DB003C08DA003B08D90082
:100D60003A08D8004730BD000430BC00D030BB008A
:100D70000030BA005B08C1005A08C0005908BF0023
:100D80005808BE000A128A112B203D08DF003C08DB
:100D9000DE003B08DD003A08DC005F08D7005E0893
:100DA000D6005D08D5005C08D4000800FC2E811533
:100DB00001118110011008000111811001100800BB
:100DC00001118110011408000111811401100800A3
:100DD000011181140114080001158110011008008F
:100DE000011581100114080001158114011008007B
:100DF00001158114011408002908003A0319042F71
:100E0000013A03191E2F232F2808013A0319D72E60
:100E1000033A0319DC2E063A0319E02E0C3A0319A3
:100E2000E42E183A0319E82E303A0319EC2E603AF2
:100E30000319F02EC03A0319F42E232F2808003A84
:100E40000319F82E232F08006C08031D332F1608F2
:100E5000EA001508E9000A128A11F7278312EC014B
:100E6000EC0A003008006C03031D532F1608E8003D
:100E70001508E7000A128A1153260A128A11570828
:100E80008316A700831256088316A60083125508FE
:100E90008316A500831254088316A4000A128A112F
:100EA000D9278312EC0101300800F800F401F501A4
:100EB0007008F200F3017208F6007308F700781C5E
:100EC000672F7608F4070318F50A7708F50701304D
:100ED0000310F60DF70DFF3E031D682F0310F80CED
:100EE0007808031D5F2F7508F1007408F0000800F2
:100EF000831688108312881010300A128A119527E1
:100F00000A128A1106308312810010308316AA005B
:100F10000030AB000A128A11AE270A128A110A1297
:100F20008A11EE270A128A11942F8316A8008715BA
:100F300007162808930083129411141594141410A2
:100F40001416941601308316910080309400831299
:100F50008C1183168C150B178B17080083128101D7
:100F60008316811281112B08A9002A08A8000A12F1
:100F70008A11D6260B118B168B1708000A128A15B8
:100F8000F9270A128A11831607158312971117156C
:100F9000971017140A128A15F327080008140D3049
:100FA000F000F00BD12F8312031308108E018F0174
:100FB00008000C110A128A15ED270530FF007F0882
:100FC000970483160C15080083162708F3002608DB
:100FD000F2002508F1002408F00008000A128A1522
:100FE000E9270A128A110A128A11BE2708008316FD
:100FF0000C110A128A15ED27171583160C15080017
:101FD2000810831208100800F030FF007F088312F7
:101FE200970508000C1183160C150B178B170800A8
:0E1FF2008E018F019010901210121014080032
:08400000FF3FFF3FFF3FFF3FC0
:02400E00FA3F77
:00000001FF
